{
  "contractName": "voting",
  "abi": [
    {
      "inputs": [],
      "stateMutability": "nonpayable",
      "type": "constructor"
    },
    {
      "inputs": [
        {
          "internalType": "string",
          "name": "",
          "type": "string"
        }
      ],
      "name": "candidate",
      "outputs": [
        {
          "internalType": "string",
          "name": "candidateName",
          "type": "string"
        },
        {
          "internalType": "string",
          "name": "candidatePartyName",
          "type": "string"
        },
        {
          "internalType": "uint256",
          "name": "votecount",
          "type": "uint256"
        }
      ],
      "stateMutability": "view",
      "type": "function",
      "constant": true
    },
    {
      "inputs": [
        {
          "internalType": "address",
          "name": "",
          "type": "address"
        }
      ],
      "name": "voter",
      "outputs": [
        {
          "internalType": "uint256",
          "name": "voterID",
          "type": "uint256"
        },
        {
          "internalType": "string",
          "name": "voterChoice",
          "type": "string"
        },
        {
          "internalType": "bool",
          "name": "voteStatus",
          "type": "bool"
        },
        {
          "internalType": "address",
          "name": "voterAddress",
          "type": "address"
        }
      ],
      "stateMutability": "view",
      "type": "function",
      "constant": true
    },
    {
      "inputs": [],
      "name": "addVoter",
      "outputs": [
        {
          "internalType": "uint256",
          "name": "",
          "type": "uint256"
        }
      ],
      "stateMutability": "nonpayable",
      "type": "function"
    },
    {
      "inputs": [
        {
          "internalType": "address",
          "name": "index",
          "type": "address"
        }
      ],
      "name": "getvotermapping",
      "outputs": [
        {
          "internalType": "uint256",
          "name": "",
          "type": "uint256"
        },
        {
          "internalType": "string",
          "name": "",
          "type": "string"
        },
        {
          "internalType": "bool",
          "name": "",
          "type": "bool"
        },
        {
          "internalType": "address",
          "name": "",
          "type": "address"
        }
      ],
      "stateMutability": "view",
      "type": "function",
      "constant": true
    },
    {
      "inputs": [
        {
          "internalType": "string",
          "name": "candidateChoice",
          "type": "string"
        }
      ],
      "name": "vote",
      "outputs": [],
      "stateMutability": "nonpayable",
      "type": "function"
    }
  ],
  "bytecode": "0x60806040526040518060400160405280600d81526020017f6e6f742079657420766f7465640000000000000000000000000000000000000081525060019080519060200190620000519291906200029f565b503480156200005f57600080fd5b5060008081905550620000776200007d60201b60201c565b62000355565b60405180606001604052806040518060400160405280600581526020017f5472756d7000000000000000000000000000000000000000000000000000000081525081526020016040518060400160405280600a81526020017f52657075626c6963616e000000000000000000000000000000000000000000008152508152602001600054815250600360405180807f5472756d70000000000000000000000000000000000000000000000000000000815250600501905090815260200160405180910390206000820151816000019080519060200190620001609291906200029f565b5060208201518160010190805190602001906200017f9291906200029f565b506040820151816002015590505060405180606001604052806040518060400160405280600581526020017f426964656e00000000000000000000000000000000000000000000000000000081525081526020016040518060400160405280600881526020017f44656d6f637261740000000000000000000000000000000000000000000000008152508152602001600054815250600360405180807f426964656e000000000000000000000000000000000000000000000000000000815250600501905090815260200160405180910390206000820151816000019080519060200190620002709291906200029f565b5060208201518160010190805190602001906200028f9291906200029f565b5060408201518160020155905050565b828054600181600116156101000203166002900490600052602060002090601f016020900481019282620002d7576000855562000323565b82601f10620002f257805160ff191683800117855562000323565b8280016001018555821562000323579182015b828111156200032257825182559160200191906001019062000305565b5b50905062000332919062000336565b5090565b5b808211156200035157600081600090555060010162000337565b5090565b610d4a80620003656000396000f3fe608060405234801561001057600080fd5b50600436106100575760003560e01c80635f9bb8e31461005c578063af0dbe541461007a578063ee8cf25914610164578063f54769d01461024e578063fc36e15b146103f5575b600080fd5b6100646104b0565b6040518082815260200191505060405180910390f35b6100bc6004803603602081101561009057600080fd5b81019080803573ffffffffffffffffffffffffffffffffffffffff169060200190929190505050610674565b604051808581526020018060200184151581526020018373ffffffffffffffffffffffffffffffffffffffff168152602001828103825285818151815260200191508051906020019080838360005b8381101561012657808201518184015260208101905061010b565b50505050905090810190601f1680156101535780820380516001836020036101000a031916815260200191505b509550505050505060405180910390f35b6101a66004803603602081101561017a57600080fd5b81019080803573ffffffffffffffffffffffffffffffffffffffff169060200190929190505050610769565b604051808581526020018060200184151581526020018373ffffffffffffffffffffffffffffffffffffffff168152602001828103825285818151815260200191508051906020019080838360005b838110156102105780820151818401526020810190506101f5565b50505050905090810190601f16801561023d5780820380516001836020036101000a031916815260200191505b509550505050505060405180910390f35b6103076004803603602081101561026457600080fd5b810190808035906020019064010000000081111561028157600080fd5b82018360208201111561029357600080fd5b803590602001918460018302840111640100000000831117156102b557600080fd5b91908080601f016020809104026020016040519081016040528093929190818152602001838380828437600081840152601f19601f820116905080830192505050505050509192919290505050610968565b604051808060200180602001848152602001838103835286818151815260200191508051906020019080838360005b83811015610351578082015181840152602081019050610336565b50505050905090810190601f16801561037e5780820380516001836020036101000a031916815260200191505b50838103825285818151815260200191508051906020019080838360005b838110156103b757808201518184015260208101905061039c565b50505050905090810190601f1680156103e45780820380516001836020036101000a031916815260200191505b509550505050505060405180910390f35b6104ae6004803603602081101561040b57600080fd5b810190808035906020019064010000000081111561042857600080fd5b82018360208201111561043a57600080fd5b8035906020019184600183028401116401000000008311171561045c57600080fd5b91908080601f016020809104026020016040519081016040528093929190818152602001838380828437600081840152601f19601f820116905080830192505050505050509192919290505050610ad8565b005b60006040518060800160405280600054815260200160018054600181600116156101000203166002900480601f01602080910402602001604051908101604052809291908181526020018280546001816001161561010002031660029004801561055b5780601f106105305761010080835404028352916020019161055b565b820191906000526020600020905b81548152906001019060200180831161053e57829003601f168201915b505050505081526020016000151581526020013373ffffffffffffffffffffffffffffffffffffffff16815250600260003373ffffffffffffffffffffffffffffffffffffffff1673ffffffffffffffffffffffffffffffffffffffff1681526020019081526020016000206000820151816000015560208201518160010190805190602001906105ed929190610c69565b5060408201518160020160006101000a81548160ff02191690831515021790555060608201518160020160016101000a81548173ffffffffffffffffffffffffffffffffffffffff021916908373ffffffffffffffffffffffffffffffffffffffff1602179055509050506000808154809291906001019190505550600160005403905090565b6002602052806000526040600020600091509050806000015490806001018054600181600116156101000203166002900480601f0160208091040260200160405190810160405280929190818152602001828054600181600116156101000203166002900480156107265780601f106106fb57610100808354040283529160200191610726565b820191906000526020600020905b81548152906001019060200180831161070957829003601f168201915b5050505050908060020160009054906101000a900460ff16908060020160019054906101000a900473ffffffffffffffffffffffffffffffffffffffff16905084565b600060606000806000600260008773ffffffffffffffffffffffffffffffffffffffff1673ffffffffffffffffffffffffffffffffffffffff1681526020019081526020016000206000015490506000600260008873ffffffffffffffffffffffffffffffffffffffff1673ffffffffffffffffffffffffffffffffffffffff1681526020019081526020016000206001018054600181600116156101000203166002900480601f01602080910402602001604051908101604052809291908181526020018280546001816001161561010002031660029004801561088f5780601f106108645761010080835404028352916020019161088f565b820191906000526020600020905b81548152906001019060200180831161087257829003601f168201915b505050505090506000600260008973ffffffffffffffffffffffffffffffffffffffff1673ffffffffffffffffffffffffffffffffffffffff16815260200190815260200160002060020160009054906101000a900460ff1690506000600260008a73ffffffffffffffffffffffffffffffffffffffff1673ffffffffffffffffffffffffffffffffffffffff16815260200190815260200160002060020160019054906101000a900473ffffffffffffffffffffffffffffffffffffffff169050838383839750975097509750505050509193509193565b600381805160208101820180518482526020830160208501208183528095505050505050600091509050806000018054600181600116156101000203166002900480601f016020809104026020016040519081016040528092919081815260200182805460018160011615610100020316600290048015610a2a5780601f106109ff57610100808354040283529160200191610a2a565b820191906000526020600020905b815481529060010190602001808311610a0d57829003601f168201915b505050505090806001018054600181600116156101000203166002900480601f016020809104026020016040519081016040528092919081815260200182805460018160011615610100020316600290048015610ac85780601f10610a9d57610100808354040283529160200191610ac8565b820191906000526020600020905b815481529060010190602001808311610aab57829003601f168201915b5050505050908060020154905083565b60001515600260003373ffffffffffffffffffffffffffffffffffffffff1673ffffffffffffffffffffffffffffffffffffffff16815260200190815260200160002060020160009054906101000a900460ff16151514610b3857600080fd5b6003816040518082805190602001908083835b60208310610b6e5780518252602082019150602081019050602083039250610b4b565b6001836020036101000a03801982511681845116808217855250505050505090500191505090815260200160405180910390206002016000815480929190600101919050555080600260003373ffffffffffffffffffffffffffffffffffffffff1673ffffffffffffffffffffffffffffffffffffffff1681526020019081526020016000206001019080519060200190610c0a929190610c69565b506001600260003373ffffffffffffffffffffffffffffffffffffffff1673ffffffffffffffffffffffffffffffffffffffff16815260200190815260200160002060020160006101000a81548160ff02191690831515021790555050565b828054600181600116156101000203166002900490600052602060002090601f016020900481019282610c9f5760008555610ce6565b82601f10610cb857805160ff1916838001178555610ce6565b82800160010185558215610ce6579182015b82811115610ce5578251825591602001919060010190610cca565b5b509050610cf39190610cf7565b5090565b5b80821115610d10576000816000905550600101610cf8565b509056fea2646970667358221220e47718674ac5036b23615e88a31e52fba42c77af8420ff7fa6111bdb4f98926264736f6c63430007060033",
  "immutableReferences": {},
  "source": "// SPDX-License-Identifier: MIT\npragma solidity ^0.7.0;\n\ncontract voting {\n     \n    uint256 count;\n    string defaultVote='not yet voted';\n\n    struct voterDetails {\n    uint256 voterID;\n    string voterChoice;\n    bool voteStatus;\n    address voterAddress;\n    }\n\n    struct governmentCandidates {\n    string candidateName;\n    string candidatePartyName;\n    uint256 votecount;\n    }\n\n    mapping(address=> voterDetails) public voter;\n    mapping(string=> governmentCandidates) public candidate;\n\n    constructor() public {\n        count = 0;\n        initializeCandidate();\n    }\n\n    function addVoter() external returns(uint256){\n    voter[msg.sender] = voterDetails(count,defaultVote,false,msg.sender);\n    count++;\n    return count-1;    \n    }\n\n    function getvotermapping(address index) public view returns(uint256,string memory,bool,address) {\n    uint256 id= voter[index].voterID;\n    string memory choice= voter[index].voterChoice;\n    bool status = voter[index].voteStatus;\n    address voterAddress= voter[index].voterAddress;\n    return (id,choice,status,voterAddress);\n    }\n\n    function initializeCandidate() internal {\n    candidate[\"Trump\"]= governmentCandidates(\"Trump\",\"Republican\",count);\n    candidate[\"Biden\"]= governmentCandidates(\"Biden\",\"Democrat\",count);\n    }\n\n    function vote(string memory candidateChoice) external {\n    require(voter[msg.sender].voteStatus==false);\n    candidate[candidateChoice].votecount++;\n    voter[msg.sender].voterChoice=candidateChoice;\n    voter[msg.sender].voteStatus=true;\n    }\n\n}",
  "sourcePath": "/home/ethereum/Desktop/voting/client/contracts/voting.sol",
  "compiler": {
    "name": "solc",
    "version": "0.7.6+commit.7338295f.Emscripten.clang"
  },
  "schemaVersion": "3.3.3",
  "updatedAt": "2021-01-11T09:46:09.727Z",
  "networkType": "ethereum",
  "devdoc": {
    "kind": "dev",
    "methods": {},
    "version": 1
  },
  "userdoc": {
    "kind": "user",
    "methods": {},
    "version": 1
  }
}